{
    "_format": "hh-sol-artifact-1",
    "contractName": "ZicretPair",
    "sourceName": "contracts/ZicretPair.sol",
    "abi": [
        {
            "inputs": [],
            "stateMutability": "payable",
            "type": "constructor"
        },
        {
            "inputs": [
                {
                    "internalType": "bool",
                    "name": "isErrorInCaller",
                    "type": "bool"
                },
                {
                    "internalType": "uint256",
                    "name": "index",
                    "type": "uint256"
                }
            ],
            "name": "UnSortedInterest",
            "type": "error"
        },
        {
            "anonymous": false,
            "inputs": [
                {
                    "indexed": false,
                    "internalType": "address",
                    "name": "sender",
                    "type": "address"
                },
                {
                    "components": [
                        {
                            "internalType": "address",
                            "name": "target",
                            "type": "address"
                        },
                        {
                            "internalType": "uint8[]",
                            "name": "pubK",
                            "type": "uint8[]"
                        },
                        {
                            "components": [
                                {
                                    "components": [
                                        {
                                            "internalType": "uint8",
                                            "name": "MBTI",
                                            "type": "uint8"
                                        }
                                    ],
                                    "internalType": "struct ZicretPair.PublicInfo",
                                    "name": "publicInfo",
                                    "type": "tuple"
                                },
                                {
                                    "components": [
                                        {
                                            "components": [
                                                {
                                                    "internalType": "bytes32",
                                                    "name": "twitter",
                                                    "type": "bytes32"
                                                },
                                                {
                                                    "internalType": "bytes32",
                                                    "name": "name",
                                                    "type": "bytes32"
                                                }
                                            ],
                                            "internalType": "struct ZicretPair.PersonalInfo",
                                            "name": "personalInfo",
                                            "type": "tuple"
                                        },
                                        {
                                            "components": [
                                                {
                                                    "internalType": "bytes32",
                                                    "name": "gender",
                                                    "type": "bytes32"
                                                },
                                                {
                                                    "internalType": "bytes32",
                                                    "name": "nation",
                                                    "type": "bytes32"
                                                },
                                                {
                                                    "internalType": "bytes32",
                                                    "name": "town",
                                                    "type": "bytes32"
                                                },
                                                {
                                                    "internalType": "bytes32",
                                                    "name": "age",
                                                    "type": "bytes32"
                                                },
                                                {
                                                    "internalType": "bytes32[]",
                                                    "name": "interest",
                                                    "type": "bytes32[]"
                                                }
                                            ],
                                            "internalType": "struct ZicretPair.Match",
                                            "name": "matchInfo",
                                            "type": "tuple"
                                        },
                                        {
                                            "components": [
                                                {
                                                    "internalType": "bytes32",
                                                    "name": "gender",
                                                    "type": "bytes32"
                                                },
                                                {
                                                    "internalType": "bytes32",
                                                    "name": "nation",
                                                    "type": "bytes32"
                                                },
                                                {
                                                    "internalType": "bytes32",
                                                    "name": "town",
                                                    "type": "bytes32"
                                                },
                                                {
                                                    "internalType": "bytes32",
                                                    "name": "age",
                                                    "type": "bytes32"
                                                },
                                                {
                                                    "internalType": "bytes32[]",
                                                    "name": "interest",
                                                    "type": "bytes32[]"
                                                }
                                            ],
                                            "internalType": "struct ZicretPair.Match",
                                            "name": "matchRequest",
                                            "type": "tuple"
                                        }
                                    ],
                                    "internalType": "struct ZicretPair.PrivateInfo",
                                    "name": "privateInfo",
                                    "type": "tuple"
                                }
                            ],
                            "internalType": "struct ZicretPair.EncryptedInfo",
                            "name": "encryptedInfo",
                            "type": "tuple"
                        }
                    ],
                    "indexed": false,
                    "internalType": "struct ZicretPair.Pair",
                    "name": "pairRequest",
                    "type": "tuple"
                },
                {
                    "indexed": false,
                    "internalType": "uint256",
                    "name": "time",
                    "type": "uint256"
                }
            ],
            "name": "ApprovePair",
            "type": "event"
        },
        {
            "anonymous": false,
            "inputs": [
                {
                    "indexed": false,
                    "internalType": "address",
                    "name": "sender",
                    "type": "address"
                },
                {
                    "components": [
                        {
                            "components": [
                                {
                                    "internalType": "uint8",
                                    "name": "MBTI",
                                    "type": "uint8"
                                }
                            ],
                            "internalType": "struct ZicretPair.PublicInfo",
                            "name": "publicInfo",
                            "type": "tuple"
                        },
                        {
                            "components": [
                                {
                                    "components": [
                                        {
                                            "internalType": "bytes32",
                                            "name": "twitter",
                                            "type": "bytes32"
                                        },
                                        {
                                            "internalType": "bytes32",
                                            "name": "name",
                                            "type": "bytes32"
                                        }
                                    ],
                                    "internalType": "struct ZicretPair.PersonalInfo",
                                    "name": "personalInfo",
                                    "type": "tuple"
                                },
                                {
                                    "components": [
                                        {
                                            "internalType": "bytes32",
                                            "name": "gender",
                                            "type": "bytes32"
                                        },
                                        {
                                            "internalType": "bytes32",
                                            "name": "nation",
                                            "type": "bytes32"
                                        },
                                        {
                                            "internalType": "bytes32",
                                            "name": "town",
                                            "type": "bytes32"
                                        },
                                        {
                                            "internalType": "bytes32",
                                            "name": "age",
                                            "type": "bytes32"
                                        },
                                        {
                                            "internalType": "bytes32[]",
                                            "name": "interest",
                                            "type": "bytes32[]"
                                        }
                                    ],
                                    "internalType": "struct ZicretPair.Match",
                                    "name": "matchInfo",
                                    "type": "tuple"
                                },
                                {
                                    "components": [
                                        {
                                            "internalType": "bytes32",
                                            "name": "gender",
                                            "type": "bytes32"
                                        },
                                        {
                                            "internalType": "bytes32",
                                            "name": "nation",
                                            "type": "bytes32"
                                        },
                                        {
                                            "internalType": "bytes32",
                                            "name": "town",
                                            "type": "bytes32"
                                        },
                                        {
                                            "internalType": "bytes32",
                                            "name": "age",
                                            "type": "bytes32"
                                        },
                                        {
                                            "internalType": "bytes32[]",
                                            "name": "interest",
                                            "type": "bytes32[]"
                                        }
                                    ],
                                    "internalType": "struct ZicretPair.Match",
                                    "name": "matchRequest",
                                    "type": "tuple"
                                }
                            ],
                            "internalType": "struct ZicretPair.PrivateInfo",
                            "name": "privateInfo",
                            "type": "tuple"
                        }
                    ],
                    "indexed": false,
                    "internalType": "struct ZicretPair.EncryptedInfo",
                    "name": "encryptedInfo",
                    "type": "tuple"
                },
                {
                    "indexed": false,
                    "internalType": "uint256",
                    "name": "time",
                    "type": "uint256"
                }
            ],
            "name": "GetOnline",
            "type": "event"
        },
        {
            "anonymous": false,
            "inputs": [
                {
                    "indexed": false,
                    "internalType": "address",
                    "name": "sender",
                    "type": "address"
                },
                {
                    "components": [
                        {
                            "internalType": "address",
                            "name": "target",
                            "type": "address"
                        },
                        {
                            "internalType": "uint8[]",
                            "name": "pubK",
                            "type": "uint8[]"
                        },
                        {
                            "components": [
                                {
                                    "components": [
                                        {
                                            "internalType": "uint8",
                                            "name": "MBTI",
                                            "type": "uint8"
                                        }
                                    ],
                                    "internalType": "struct ZicretPair.PublicInfo",
                                    "name": "publicInfo",
                                    "type": "tuple"
                                },
                                {
                                    "components": [
                                        {
                                            "components": [
                                                {
                                                    "internalType": "bytes32",
                                                    "name": "twitter",
                                                    "type": "bytes32"
                                                },
                                                {
                                                    "internalType": "bytes32",
                                                    "name": "name",
                                                    "type": "bytes32"
                                                }
                                            ],
                                            "internalType": "struct ZicretPair.PersonalInfo",
                                            "name": "personalInfo",
                                            "type": "tuple"
                                        },
                                        {
                                            "components": [
                                                {
                                                    "internalType": "bytes32",
                                                    "name": "gender",
                                                    "type": "bytes32"
                                                },
                                                {
                                                    "internalType": "bytes32",
                                                    "name": "nation",
                                                    "type": "bytes32"
                                                },
                                                {
                                                    "internalType": "bytes32",
                                                    "name": "town",
                                                    "type": "bytes32"
                                                },
                                                {
                                                    "internalType": "bytes32",
                                                    "name": "age",
                                                    "type": "bytes32"
                                                },
                                                {
                                                    "internalType": "bytes32[]",
                                                    "name": "interest",
                                                    "type": "bytes32[]"
                                                }
                                            ],
                                            "internalType": "struct ZicretPair.Match",
                                            "name": "matchInfo",
                                            "type": "tuple"
                                        },
                                        {
                                            "components": [
                                                {
                                                    "internalType": "bytes32",
                                                    "name": "gender",
                                                    "type": "bytes32"
                                                },
                                                {
                                                    "internalType": "bytes32",
                                                    "name": "nation",
                                                    "type": "bytes32"
                                                },
                                                {
                                                    "internalType": "bytes32",
                                                    "name": "town",
                                                    "type": "bytes32"
                                                },
                                                {
                                                    "internalType": "bytes32",
                                                    "name": "age",
                                                    "type": "bytes32"
                                                },
                                                {
                                                    "internalType": "bytes32[]",
                                                    "name": "interest",
                                                    "type": "bytes32[]"
                                                }
                                            ],
                                            "internalType": "struct ZicretPair.Match",
                                            "name": "matchRequest",
                                            "type": "tuple"
                                        }
                                    ],
                                    "internalType": "struct ZicretPair.PrivateInfo",
                                    "name": "privateInfo",
                                    "type": "tuple"
                                }
                            ],
                            "internalType": "struct ZicretPair.EncryptedInfo",
                            "name": "encryptedInfo",
                            "type": "tuple"
                        }
                    ],
                    "indexed": false,
                    "internalType": "struct ZicretPair.Pair",
                    "name": "pairRequest",
                    "type": "tuple"
                },
                {
                    "indexed": false,
                    "internalType": "uint256",
                    "name": "time",
                    "type": "uint256"
                }
            ],
            "name": "RequestPair",
            "type": "event"
        },
        {
            "anonymous": false,
            "inputs": [
                {
                    "indexed": false,
                    "internalType": "address",
                    "name": "sender",
                    "type": "address"
                },
                {
                    "components": [
                        {
                            "internalType": "address",
                            "name": "target",
                            "type": "address"
                        },
                        {
                            "internalType": "bytes",
                            "name": "sharingInfo",
                            "type": "bytes"
                        }
                    ],
                    "indexed": false,
                    "internalType": "struct ZicretPair.SharingInfo",
                    "name": "sharingInfo",
                    "type": "tuple"
                },
                {
                    "indexed": false,
                    "internalType": "uint256",
                    "name": "time",
                    "type": "uint256"
                }
            ],
            "name": "SendSharingInfo",
            "type": "event"
        },
        {
            "inputs": [
                {
                    "components": [
                        {
                            "internalType": "address",
                            "name": "target",
                            "type": "address"
                        },
                        {
                            "internalType": "uint8[]",
                            "name": "pubK",
                            "type": "uint8[]"
                        },
                        {
                            "components": [
                                {
                                    "components": [
                                        {
                                            "internalType": "uint8",
                                            "name": "MBTI",
                                            "type": "uint8"
                                        }
                                    ],
                                    "internalType": "struct ZicretPair.PublicInfo",
                                    "name": "publicInfo",
                                    "type": "tuple"
                                },
                                {
                                    "components": [
                                        {
                                            "components": [
                                                {
                                                    "internalType": "bytes32",
                                                    "name": "twitter",
                                                    "type": "bytes32"
                                                },
                                                {
                                                    "internalType": "bytes32",
                                                    "name": "name",
                                                    "type": "bytes32"
                                                }
                                            ],
                                            "internalType": "struct ZicretPair.PersonalInfo",
                                            "name": "personalInfo",
                                            "type": "tuple"
                                        },
                                        {
                                            "components": [
                                                {
                                                    "internalType": "bytes32",
                                                    "name": "gender",
                                                    "type": "bytes32"
                                                },
                                                {
                                                    "internalType": "bytes32",
                                                    "name": "nation",
                                                    "type": "bytes32"
                                                },
                                                {
                                                    "internalType": "bytes32",
                                                    "name": "town",
                                                    "type": "bytes32"
                                                },
                                                {
                                                    "internalType": "bytes32",
                                                    "name": "age",
                                                    "type": "bytes32"
                                                },
                                                {
                                                    "internalType": "bytes32[]",
                                                    "name": "interest",
                                                    "type": "bytes32[]"
                                                }
                                            ],
                                            "internalType": "struct ZicretPair.Match",
                                            "name": "matchInfo",
                                            "type": "tuple"
                                        },
                                        {
                                            "components": [
                                                {
                                                    "internalType": "bytes32",
                                                    "name": "gender",
                                                    "type": "bytes32"
                                                },
                                                {
                                                    "internalType": "bytes32",
                                                    "name": "nation",
                                                    "type": "bytes32"
                                                },
                                                {
                                                    "internalType": "bytes32",
                                                    "name": "town",
                                                    "type": "bytes32"
                                                },
                                                {
                                                    "internalType": "bytes32",
                                                    "name": "age",
                                                    "type": "bytes32"
                                                },
                                                {
                                                    "internalType": "bytes32[]",
                                                    "name": "interest",
                                                    "type": "bytes32[]"
                                                }
                                            ],
                                            "internalType": "struct ZicretPair.Match",
                                            "name": "matchRequest",
                                            "type": "tuple"
                                        }
                                    ],
                                    "internalType": "struct ZicretPair.PrivateInfo",
                                    "name": "privateInfo",
                                    "type": "tuple"
                                }
                            ],
                            "internalType": "struct ZicretPair.EncryptedInfo",
                            "name": "encryptedInfo",
                            "type": "tuple"
                        }
                    ],
                    "internalType": "struct ZicretPair.Pair",
                    "name": "pairApprovement",
                    "type": "tuple"
                }
            ],
            "name": "approvePair",
            "outputs": [],
            "stateMutability": "nonpayable",
            "type": "function"
        },
        {
            "inputs": [
                {
                    "components": [
                        {
                            "components": [
                                {
                                    "internalType": "uint8",
                                    "name": "MBTI",
                                    "type": "uint8"
                                }
                            ],
                            "internalType": "struct ZicretPair.PublicInfo",
                            "name": "publicInfo",
                            "type": "tuple"
                        },
                        {
                            "components": [
                                {
                                    "components": [
                                        {
                                            "internalType": "bytes32",
                                            "name": "twitter",
                                            "type": "bytes32"
                                        },
                                        {
                                            "internalType": "bytes32",
                                            "name": "name",
                                            "type": "bytes32"
                                        }
                                    ],
                                    "internalType": "struct ZicretPair.PersonalInfo",
                                    "name": "personalInfo",
                                    "type": "tuple"
                                },
                                {
                                    "components": [
                                        {
                                            "internalType": "bytes32",
                                            "name": "gender",
                                            "type": "bytes32"
                                        },
                                        {
                                            "internalType": "bytes32",
                                            "name": "nation",
                                            "type": "bytes32"
                                        },
                                        {
                                            "internalType": "bytes32",
                                            "name": "town",
                                            "type": "bytes32"
                                        },
                                        {
                                            "internalType": "bytes32",
                                            "name": "age",
                                            "type": "bytes32"
                                        },
                                        {
                                            "internalType": "bytes32[]",
                                            "name": "interest",
                                            "type": "bytes32[]"
                                        }
                                    ],
                                    "internalType": "struct ZicretPair.Match",
                                    "name": "matchInfo",
                                    "type": "tuple"
                                },
                                {
                                    "components": [
                                        {
                                            "internalType": "bytes32",
                                            "name": "gender",
                                            "type": "bytes32"
                                        },
                                        {
                                            "internalType": "bytes32",
                                            "name": "nation",
                                            "type": "bytes32"
                                        },
                                        {
                                            "internalType": "bytes32",
                                            "name": "town",
                                            "type": "bytes32"
                                        },
                                        {
                                            "internalType": "bytes32",
                                            "name": "age",
                                            "type": "bytes32"
                                        },
                                        {
                                            "internalType": "bytes32[]",
                                            "name": "interest",
                                            "type": "bytes32[]"
                                        }
                                    ],
                                    "internalType": "struct ZicretPair.Match",
                                    "name": "matchRequest",
                                    "type": "tuple"
                                }
                            ],
                            "internalType": "struct ZicretPair.PrivateInfo",
                            "name": "privateInfo",
                            "type": "tuple"
                        }
                    ],
                    "internalType": "struct ZicretPair.EncryptedInfo",
                    "name": "a",
                    "type": "tuple"
                },
                {
                    "components": [
                        {
                            "components": [
                                {
                                    "internalType": "uint8",
                                    "name": "MBTI",
                                    "type": "uint8"
                                }
                            ],
                            "internalType": "struct ZicretPair.PublicInfo",
                            "name": "publicInfo",
                            "type": "tuple"
                        },
                        {
                            "components": [
                                {
                                    "components": [
                                        {
                                            "internalType": "bytes32",
                                            "name": "twitter",
                                            "type": "bytes32"
                                        },
                                        {
                                            "internalType": "bytes32",
                                            "name": "name",
                                            "type": "bytes32"
                                        }
                                    ],
                                    "internalType": "struct ZicretPair.PersonalInfo",
                                    "name": "personalInfo",
                                    "type": "tuple"
                                },
                                {
                                    "components": [
                                        {
                                            "internalType": "bytes32",
                                            "name": "gender",
                                            "type": "bytes32"
                                        },
                                        {
                                            "internalType": "bytes32",
                                            "name": "nation",
                                            "type": "bytes32"
                                        },
                                        {
                                            "internalType": "bytes32",
                                            "name": "town",
                                            "type": "bytes32"
                                        },
                                        {
                                            "internalType": "bytes32",
                                            "name": "age",
                                            "type": "bytes32"
                                        },
                                        {
                                            "internalType": "bytes32[]",
                                            "name": "interest",
                                            "type": "bytes32[]"
                                        }
                                    ],
                                    "internalType": "struct ZicretPair.Match",
                                    "name": "matchInfo",
                                    "type": "tuple"
                                },
                                {
                                    "components": [
                                        {
                                            "internalType": "bytes32",
                                            "name": "gender",
                                            "type": "bytes32"
                                        },
                                        {
                                            "internalType": "bytes32",
                                            "name": "nation",
                                            "type": "bytes32"
                                        },
                                        {
                                            "internalType": "bytes32",
                                            "name": "town",
                                            "type": "bytes32"
                                        },
                                        {
                                            "internalType": "bytes32",
                                            "name": "age",
                                            "type": "bytes32"
                                        },
                                        {
                                            "internalType": "bytes32[]",
                                            "name": "interest",
                                            "type": "bytes32[]"
                                        }
                                    ],
                                    "internalType": "struct ZicretPair.Match",
                                    "name": "matchRequest",
                                    "type": "tuple"
                                }
                            ],
                            "internalType": "struct ZicretPair.PrivateInfo",
                            "name": "privateInfo",
                            "type": "tuple"
                        }
                    ],
                    "internalType": "struct ZicretPair.EncryptedInfo",
                    "name": "b",
                    "type": "tuple"
                },
                {
                    "components": [
                        {
                            "internalType": "int256",
                            "name": "gender",
                            "type": "int256"
                        },
                        {
                            "internalType": "int256",
                            "name": "nation",
                            "type": "int256"
                        },
                        {
                            "internalType": "int256",
                            "name": "town",
                            "type": "int256"
                        },
                        {
                            "internalType": "int256",
                            "name": "age",
                            "type": "int256"
                        },
                        {
                            "internalType": "int256[]",
                            "name": "interest",
                            "type": "int256[]"
                        }
                    ],
                    "internalType": "struct ZicretPair.Weight",
                    "name": "weight",
                    "type": "tuple"
                }
            ],
            "name": "calculatePSI",
            "outputs": [
                {
                    "internalType": "int256",
                    "name": "score",
                    "type": "int256"
                }
            ],
            "stateMutability": "view",
            "type": "function"
        },
        {
            "inputs": [
                {
                    "internalType": "address",
                    "name": "a",
                    "type": "address"
                },
                {
                    "internalType": "address",
                    "name": "b",
                    "type": "address"
                }
            ],
            "name": "getPairHash",
            "outputs": [
                {
                    "internalType": "bytes32",
                    "name": "",
                    "type": "bytes32"
                }
            ],
            "stateMutability": "pure",
            "type": "function"
        },
        {
            "inputs": [
                {
                    "components": [
                        {
                            "components": [
                                {
                                    "internalType": "uint8",
                                    "name": "MBTI",
                                    "type": "uint8"
                                }
                            ],
                            "internalType": "struct ZicretPair.PublicInfo",
                            "name": "publicInfo",
                            "type": "tuple"
                        },
                        {
                            "components": [
                                {
                                    "components": [
                                        {
                                            "internalType": "bytes32",
                                            "name": "twitter",
                                            "type": "bytes32"
                                        },
                                        {
                                            "internalType": "bytes32",
                                            "name": "name",
                                            "type": "bytes32"
                                        }
                                    ],
                                    "internalType": "struct ZicretPair.PersonalInfo",
                                    "name": "personalInfo",
                                    "type": "tuple"
                                },
                                {
                                    "components": [
                                        {
                                            "internalType": "bytes32",
                                            "name": "gender",
                                            "type": "bytes32"
                                        },
                                        {
                                            "internalType": "bytes32",
                                            "name": "nation",
                                            "type": "bytes32"
                                        },
                                        {
                                            "internalType": "bytes32",
                                            "name": "town",
                                            "type": "bytes32"
                                        },
                                        {
                                            "internalType": "bytes32",
                                            "name": "age",
                                            "type": "bytes32"
                                        },
                                        {
                                            "internalType": "bytes32[]",
                                            "name": "interest",
                                            "type": "bytes32[]"
                                        }
                                    ],
                                    "internalType": "struct ZicretPair.Match",
                                    "name": "matchInfo",
                                    "type": "tuple"
                                },
                                {
                                    "components": [
                                        {
                                            "internalType": "bytes32",
                                            "name": "gender",
                                            "type": "bytes32"
                                        },
                                        {
                                            "internalType": "bytes32",
                                            "name": "nation",
                                            "type": "bytes32"
                                        },
                                        {
                                            "internalType": "bytes32",
                                            "name": "town",
                                            "type": "bytes32"
                                        },
                                        {
                                            "internalType": "bytes32",
                                            "name": "age",
                                            "type": "bytes32"
                                        },
                                        {
                                            "internalType": "bytes32[]",
                                            "name": "interest",
                                            "type": "bytes32[]"
                                        }
                                    ],
                                    "internalType": "struct ZicretPair.Match",
                                    "name": "matchRequest",
                                    "type": "tuple"
                                }
                            ],
                            "internalType": "struct ZicretPair.PrivateInfo",
                            "name": "privateInfo",
                            "type": "tuple"
                        }
                    ],
                    "internalType": "struct ZicretPair.EncryptedInfo",
                    "name": "encryptedInfo",
                    "type": "tuple"
                }
            ],
            "name": "online",
            "outputs": [],
            "stateMutability": "nonpayable",
            "type": "function"
        },
        {
            "inputs": [
                {
                    "internalType": "bytes32",
                    "name": "",
                    "type": "bytes32"
                }
            ],
            "name": "pairRecored",
            "outputs": [
                {
                    "internalType": "bool",
                    "name": "",
                    "type": "bool"
                }
            ],
            "stateMutability": "view",
            "type": "function"
        },
        {
            "inputs": [
                {
                    "components": [
                        {
                            "internalType": "address",
                            "name": "target",
                            "type": "address"
                        },
                        {
                            "internalType": "uint8[]",
                            "name": "pubK",
                            "type": "uint8[]"
                        },
                        {
                            "components": [
                                {
                                    "components": [
                                        {
                                            "internalType": "uint8",
                                            "name": "MBTI",
                                            "type": "uint8"
                                        }
                                    ],
                                    "internalType": "struct ZicretPair.PublicInfo",
                                    "name": "publicInfo",
                                    "type": "tuple"
                                },
                                {
                                    "components": [
                                        {
                                            "components": [
                                                {
                                                    "internalType": "bytes32",
                                                    "name": "twitter",
                                                    "type": "bytes32"
                                                },
                                                {
                                                    "internalType": "bytes32",
                                                    "name": "name",
                                                    "type": "bytes32"
                                                }
                                            ],
                                            "internalType": "struct ZicretPair.PersonalInfo",
                                            "name": "personalInfo",
                                            "type": "tuple"
                                        },
                                        {
                                            "components": [
                                                {
                                                    "internalType": "bytes32",
                                                    "name": "gender",
                                                    "type": "bytes32"
                                                },
                                                {
                                                    "internalType": "bytes32",
                                                    "name": "nation",
                                                    "type": "bytes32"
                                                },
                                                {
                                                    "internalType": "bytes32",
                                                    "name": "town",
                                                    "type": "bytes32"
                                                },
                                                {
                                                    "internalType": "bytes32",
                                                    "name": "age",
                                                    "type": "bytes32"
                                                },
                                                {
                                                    "internalType": "bytes32[]",
                                                    "name": "interest",
                                                    "type": "bytes32[]"
                                                }
                                            ],
                                            "internalType": "struct ZicretPair.Match",
                                            "name": "matchInfo",
                                            "type": "tuple"
                                        },
                                        {
                                            "components": [
                                                {
                                                    "internalType": "bytes32",
                                                    "name": "gender",
                                                    "type": "bytes32"
                                                },
                                                {
                                                    "internalType": "bytes32",
                                                    "name": "nation",
                                                    "type": "bytes32"
                                                },
                                                {
                                                    "internalType": "bytes32",
                                                    "name": "town",
                                                    "type": "bytes32"
                                                },
                                                {
                                                    "internalType": "bytes32",
                                                    "name": "age",
                                                    "type": "bytes32"
                                                },
                                                {
                                                    "internalType": "bytes32[]",
                                                    "name": "interest",
                                                    "type": "bytes32[]"
                                                }
                                            ],
                                            "internalType": "struct ZicretPair.Match",
                                            "name": "matchRequest",
                                            "type": "tuple"
                                        }
                                    ],
                                    "internalType": "struct ZicretPair.PrivateInfo",
                                    "name": "privateInfo",
                                    "type": "tuple"
                                }
                            ],
                            "internalType": "struct ZicretPair.EncryptedInfo",
                            "name": "encryptedInfo",
                            "type": "tuple"
                        }
                    ],
                    "internalType": "struct ZicretPair.Pair",
                    "name": "pairRequest",
                    "type": "tuple"
                }
            ],
            "name": "requestPair",
            "outputs": [],
            "stateMutability": "nonpayable",
            "type": "function"
        },
        {
            "inputs": [
                {
                    "components": [
                        {
                            "internalType": "address",
                            "name": "target",
                            "type": "address"
                        },
                        {
                            "internalType": "bytes",
                            "name": "sharingInfo",
                            "type": "bytes"
                        }
                    ],
                    "internalType": "struct ZicretPair.SharingInfo",
                    "name": "sharingInfo",
                    "type": "tuple"
                }
            ],
            "name": "sendSharingInfo",
            "outputs": [],
            "stateMutability": "nonpayable",
            "type": "function"
        },
        {
            "inputs": [
                {
                    "internalType": "address",
                    "name": "",
                    "type": "address"
                },
                {
                    "internalType": "uint256",
                    "name": "",
                    "type": "uint256"
                }
            ],
            "name": "successfulPair",
            "outputs": [
                {
                    "internalType": "address",
                    "name": "",
                    "type": "address"
                }
            ],
            "stateMutability": "view",
            "type": "function"
        },
        {
            "inputs": [
                {
                    "internalType": "address",
                    "name": "",
                    "type": "address"
                }
            ],
            "name": "userStats",
            "outputs": [
                {
                    "internalType": "uint256",
                    "name": "onlineTimes",
                    "type": "uint256"
                },
                {
                    "internalType": "uint256",
                    "name": "requestingTimes",
                    "type": "uint256"
                },
                {
                    "internalType": "uint256",
                    "name": "requestedTimes",
                    "type": "uint256"
                },
                {
                    "internalType": "uint256",
                    "name": "matchTimes",
                    "type": "uint256"
                }
            ],
            "stateMutability": "view",
            "type": "function"
        }
    ],
    "bytecode": "0x60806040527f9234f72f96b66bec26f9c0975bfb31a62462309edc5c26b5600cd4d830e163e2600055611141806100376000396000f3fe608060405234801561001057600080fd5b50600436106100935760003560e01c8063ba468cd011610066578063ba468cd01461014f578063d306ca5a14610162578063d7b7961c14610183578063e8c2ee4d14610196578063fbbffca9146101c157600080fd5b80633c82a2751461009857806360b220c7146100d057806382a64ee3146100e55780638a65d874146100f8575b600080fd5b6100bb6100a636600461078e565b60026020526000908152604090205460ff1681565b60405190151581526020015b60405180910390f35b6100e36100de366004610a7c565b6101d4565b005b6100e36100f3366004610ad0565b610238565b61012f610106366004610b9e565b600360208190526000918252604090912080546001820154600283015492909301549092919084565b6040805194855260208501939093529183015260608201526080016100c7565b6100e361015d366004610bc0565b610370565b610175610170366004610cbe565b6103a3565b6040519081526020016100c7565b610175610191366004610df1565b61062f565b6101a96101a4366004610e24565b6106c6565b6040516001600160a01b0390911681526020016100c7565b6100e36101cf366004610bc0565b6106fe565b3360009081526003602052604081208054600192906101f4908490610e64565b90915550506040517f446a5bf13fd06f6014d5af97f08e14c01789cc40901f5cfad536dcbfbafa8e3b9061022d90339084904290610f56565b60405180910390a150565b600061024833836000015161062f565b60008181526002602052604090205490915060ff16610331576000818152600260209081526040808320805460ff191660019081179091553380855281845282852087518154808501835591875285872090910180546001600160a01b039283166001600160a01b03199182161790915588519091168652838620805480850182559087528587200180549091168217905584526003928390529083209091018054919290916102f9908490610e64565b909155505081516001600160a01b0316600090815260036020819052604082200180546001929061032b908490610e64565b90915550505b7f2b37f080f8ede2f93c181138afc7241fc5a9e48729938ee44814fdc25b5e96f533834260405161036493929190610f8a565b60405180910390a15050565b7f34b743da78678266616bd02ab464a6e638eab07a2a8015e4659e01870196b80333824260405161022d93929190611007565b60208084015160400151838201519091015180518251600093929114806103cc57506000548251145b156103e05783516103dd90846110a1565b92505b8060200151826020015114806103fb57506000548260200151145b1561041257602084015161040f90846110a1565b92505b80604001518260400151148061042d57506000548260400151145b1561044457604084015161044190846110a1565b92505b80606001518260600151148061045f57506000548260600151145b1561047657606084015161047390846110a1565b92505b60005b826080015151811015610625576000811180156104da575060808301516104a16001836110c9565b815181106104b1576104b16110dc565b6020026020010151836080015182815181106104cf576104cf6110dc565b602002602001015111155b156105075760405163074cc91960e31b815260016004820152602481018290526044015b60405180910390fd5b60005b8260800151518110156106125760008111801561056b575060808301516105326001836110c9565b81518110610542576105426110dc565b602002602001015183608001518281518110610560576105606110dc565b602002602001015111155b156105935760405163074cc91960e31b815260006004820152602481018290526044016104fe565b826080015181815181106105a9576105a96110dc565b6020026020010151846080015183815181106105c7576105c76110dc565b60200260200101510361060057856080015182815181106105ea576105ea6110dc565b6020026020010151856105fd91906110a1565b94505b8061060a816110f2565b91505061050a565b508061061d816110f2565b915050610479565b5050509392505050565b6000816001600160a01b0316836001600160a01b03161115610692576040516bffffffffffffffffffffffff19606085811b8216602084015284901b1660348201526048015b6040516020818303038152906040528051906020012090506106c0565b6040516bffffffffffffffffffffffff19606084811b8216602084015285901b166034820152604801610675565b92915050565b600160205281600052604060002081815481106106e257600080fd5b6000918252602090912001546001600160a01b03169150829050565b3360009081526003602052604081206001908101805491929091610723908490610e64565b909155505080516001600160a01b03166000908152600360205260408120600201805460019290610755908490610e64565b90915550506040517f236e25da03aea14bd0f1a781de93d10351652bdb40941fcc8f3d8293925835449061022d90339084904290611007565b6000602082840312156107a057600080fd5b5035919050565b634e487b7160e01b600052604160045260246000fd5b60405160a0810167ffffffffffffffff811182821017156107e0576107e06107a7565b60405290565b6040805190810167ffffffffffffffff811182821017156107e0576107e06107a7565b6040516020810167ffffffffffffffff811182821017156107e0576107e06107a7565b6040516060810167ffffffffffffffff811182821017156107e0576107e06107a7565b604051601f8201601f1916810167ffffffffffffffff81118282101715610878576108786107a7565b604052919050565b803560ff8116811461089157600080fd5b919050565b600067ffffffffffffffff8211156108b0576108b06107a7565b5060051b60200190565b600060a082840312156108cc57600080fd5b6108d46107bd565b905081358152602080830135818301526040830135604083015260608301356060830152608083013567ffffffffffffffff81111561091257600080fd5b8301601f8101851361092357600080fd5b803561093661093182610896565b61084f565b81815260059190911b8201830190838101908783111561095557600080fd5b928401925b828410156109735783358252928401929084019061095a565b6080860152509295945050505050565b6000818303604081121561099657600080fd5b61099e6107e6565b91506020808212156109af57600080fd5b6109b7610809565b91506109c284610880565b8252908252828101359067ffffffffffffffff808311156109e257600080fd5b9184019182860360808112156109f757600080fd5b6109ff61082c565b6040821215610a0d57600080fd5b610a156107e6565b85358152848601358582015281526040850135915082821115610a3757600080fd5b610a43888387016108ba565b848201526060850135915082821115610a5b57600080fd5b610a67888387016108ba565b60408201528084870152505050505092915050565b600060208284031215610a8e57600080fd5b813567ffffffffffffffff811115610aa557600080fd5b610ab184828501610983565b949350505050565b80356001600160a01b038116811461089157600080fd5b60006020808385031215610ae357600080fd5b823567ffffffffffffffff80821115610afb57600080fd5b9084019060408287031215610b0f57600080fd5b610b176107e6565b610b2083610ab9565b81528383013582811115610b3357600080fd5b80840193505086601f840112610b4857600080fd5b823582811115610b5a57610b5a6107a7565b610b6c601f8201601f1916860161084f565b92508083528785828601011115610b8257600080fd5b8085850186850137600090830185015292830152509392505050565b600060208284031215610bb057600080fd5b610bb982610ab9565b9392505050565b60006020808385031215610bd357600080fd5b823567ffffffffffffffff80821115610beb57600080fd5b9084019060608287031215610bff57600080fd5b610c0761082c565b610c1083610ab9565b81528383013582811115610c2357600080fd5b8301601f81018813610c3457600080fd5b8035610c4261093182610896565b81815260059190911b8201860190868101908a831115610c6157600080fd5b928701925b82841015610c8657610c7784610880565b82529287019290870190610c66565b8088860152505050506040830135935081841115610ca357600080fd5b610caf87858501610983565b60408201529695505050505050565b600080600060608486031215610cd357600080fd5b833567ffffffffffffffff80821115610ceb57600080fd5b610cf787838801610983565b9450602091508186013581811115610d0e57600080fd5b610d1a88828901610983565b945050604086013581811115610d2f57600080fd5b860160a08189031215610d4157600080fd5b610d496107bd565b8135815283820135848201526040820135604082015260608201356060820152608082013583811115610d7b57600080fd5b82019250601f83018913610d8e57600080fd5b82359150610d9e61093183610896565b82815260059290921b8301840191848101908a841115610dbd57600080fd5b938501935b83851015610ddb57843582529385019390850190610dc2565b8060808401525050809450505050509250925092565b60008060408385031215610e0457600080fd5b610e0d83610ab9565b9150610e1b60208401610ab9565b90509250929050565b60008060408385031215610e3757600080fd5b610e4083610ab9565b946020939093013593505050565b634e487b7160e01b600052601160045260246000fd5b808201808211156106c0576106c0610e4e565b600060a0830182518452602080840151818601526040840151604086015260608401516060860152608084015160a0608087015282815180855260c0880191508383019450600092505b80831015610ee15784518252938301936001929092019190830190610ec1565b509695505050505050565b60ff815151168252600060208201516040602085015280518051604086015260208101516060860152506020810151608080860152610f2e60c0860182610e77565b905060408201519150603f198582030160a0860152610f4d8183610e77565b95945050505050565b6001600160a01b0384168152606060208201819052600090610f7a90830185610eec565b9050826040830152949350505050565b600060018060a01b03808616835260206060818501528186511660608501528086015191506040608085015281518060a086015260005b81811015610fdd5783810183015186820160c001528201610fc1565b50600060c0828701015260c0601f19601f8301168601019350505050826040830152949350505050565b6001600160a01b03848116825260606020808401829052855190921681840152848201516080840191909152805160c084018190526000929182019190839060e08601905b8083101561106f57845160ff16825293830193600192909201919083019061104c565b506040880151868203605f190160a0880152935061108d8185610eec565b945050505050826040830152949350505050565b80820182811260008312801582168215821617156110c1576110c1610e4e565b505092915050565b818103818111156106c0576106c0610e4e565b634e487b7160e01b600052603260045260246000fd5b60006001820161110457611104610e4e565b506001019056fea26469706673582212200fde1e18454239e3a4015377bbf60db833f205f387606c2a0fb142c2eef7f7a764736f6c63430008110033",
    "linkReferences": {},
    "deployedLinkReferences": {}
}